:100000000C943E000C945B000C945B000C945B0021
:100010000C945B000C945B000C945B000C945B00F4
:100020000C945B000C94D7030C945B000C945B0065
:100030000C945B000C9493030C945B000C945B0099
:100040000C948F020C945B000C945B000C945B008E
:100050000C945B000C945B000C945B000C945B00B4
:100060000C945B000C945B000C945B000C945B00A4
:100070000C945B000C945B000C945B0011241FBE7D
:10008000CFEFD8E0DEBFCDBF11E0A0E0B1E0E4E308
:10009000FCE002C005900D92A231B107D9F721E032
:1000A000A2E1B1E001C01D92A133B207E1F70E94C5
:1000B000D0040C9418060C94000090917C00907E63
:1000C000892B80937C0080917A00806480937A00F1
:1000D00080917A0086FDFCCF809178009091790024
:1000E0000895CF93482FC92FFB018BE0869F900185
:1000F000879F300D1124232F332726952695842F93
:1001000090E08217930778F480E0922F990F990F6F
:100110006BE070E00E94F0056C5E7F4FE617F7071A
:1001200078F4842F0EC0942F990F990F80E06BE024
:1001300070E00E940406645171096E177F0788F30E
:10014000822F9C2FCF910895CF93C82F492FFB0169
:100150002CE0269FC001279F900D1124892F9927FD
:100160008695869555E0589F9001599F300D112432
:10017000842F90E08217930778F480E0922F990FF4
:10018000990F6CE370E00E94F0056C5E7F4FE617FC
:10019000F70778F4942F0EC0942F990F990F80E0F1
:1001A0006CE370E00E940406645171096E177F07CA
:1001B00088F3922F8C2FCF9108951F93CF93DF93C5
:1001C000EC01862F142F0E945D00BC01CE010E941D
:1001D0007100EC01812F0E945D00BC01CE010E94E4
:1001E000A400DF91CF911F910895CF93C82F862F40
:1001F0000E945D00AC018C2F63E30E94E405E0E007
:10020000F1E091E020E030E061E0E830F60771F0E5
:1002100061917191981710F42081318164177507ED
:1002200098F79F5F891780F79B01EECF9817A1F091
:10023000891730F42E5C3F4F4217530740F40CC02F
:10024000981728F4225331092417350728F083E33F
:10025000989F802D112401C08C2FCF910895AC015F
:100260008130910571F040F08230910589F003975B
:1002700089F426B120720EC023B122FB222720F977
:1002800004C023B123FB222720F991E0292702C0D3
:1002900026B12074DA01A65EBE4F8C91FA01EA5EA7
:1002A000FE4F281306C08081873018F48F5F80834B
:1002B00002C010822C938081873070F08C91FA01FB
:1002C000EE5EFE4F882331F08081811105C081E010
:1002D000808308951082089580E00895AF92BF92C0
:1002E000DF92EF92FF920F931F93CF93DF935C0106
:1002F000E62FF0E0E85FFE4F1081E0E0F0E083E001
:10030000D82E812F880F880BE82EE022F82EF222BB
:10031000382F3423DF0150E0852F6D2D0E94E40536
:10032000692FC5018A0F9B1FEC01613021F06230FB
:1003300021F0F88203C0388301C0E8825F5F119624
:10034000593051F7110F3996EF33F105D1F6DF919E
:10035000CF911F910F91FF90EF90DF90BF90AF90E2
:100360000895FC0140836183228343836483258352
:100370000895BF92CF92DF92EF92FF920F931F9357
:10038000CF93DF93EC01C62EB72E142FF22EE02E62
:10039000862F6AE00E94E405882311F0682F04C0CC
:1003A00000E020E040E060E0CE010E946E018AE0C3
:1003B000D82E8C2D6D2D0E94E4050E2D2F2D412F52
:1003C000692FCE01CF960E946E018B2D6D2D0E945C
:1003D000E405D92E2F2D412F682FCE018C579F4F2A
:1003E0000E946E012F2D412F6D2DCE018D539F4FF9
:1003F0000E946E012E2D4F2D612FCE0182589F4FEE
:10040000DF91CF911F910F91FF90EF90DF90CF90F0
:10041000BF900C94B1018F929F92AF92BF92CF92F6
:10042000DF92EF92FF920F931F93CF93DF93EC0134
:100430005B01142FF22E20E040E060E082589F4FD5
:100440000E94B1018AE0C82ED12CC501B6010E94DC
:10045000F0054B012F2D412F682FCE018D539F4F5B
:100460000E946E01C401B6010E94F0052F2D412F9C
:10047000682FCE018C579F4F0E946E01C50164E624
:1004800070E00E94F005CB01B6010E94F0052F2D0F
:10049000412F682FCE01CF960E946E01C50168EEF4
:1004A00073E00E94F005CB01B6010E94F0052F2DEC
:1004B000412F682FCE010E946E01DF91CF911F91D5
:1004C0000F91FF90EF90DF90CF90BF90AF909F90F3
:1004D0008F900895DF92EF92FF920F931F93CF9327
:1004E000DF93EC01862F142FF22E6AE00E94E405C0
:1004F000D92E682FCE018E5F9E4F0E946E012F2D48
:10050000412F6D2DCE018F5B9E4F0E946E01DF91BA
:10051000CF911F910F91FF90EF90DF9008951F9260
:100520000F920FB60F9211248F939F938091250104
:100530009091260101979093260180932501809147
:10054000250190912601892B19F485B5887F85BDF9
:100550009F918F910F900FBE0F901F9018958091D3
:100560002F019091300190931F0180931E01E1E8CB
:10057000F0E080818560808308951092850010925C
:10058000840010921F0110921E01109227010895FD
:1005900084E690E0909324018093230184E090E02E
:1005A000909322018093210181E0809320012C9A75
:1005B000E1EBF0E0808187608083089580E590E042
:1005C0009093240180932301109220012C9AE1EB57
:1005D000F0E0808187608083089580912D01909163
:1005E0002E010E948B04811119C080912D019091E0
:1005F0002E010E948B048823D1F080912B019091D1
:100600002C01909329018093280182E090E090933F
:100610001F0180931E010E94DE0219C080912B01F0
:1006200090912C010E948B048823F9F20895809107
:100630002D0190912E01909329018093280181E052
:1006400090E090931F0180931E010E94C80281E0F8
:1006500080932701809181008560809381000895B7
:1006600080911E0190911F01019751F580912B01FE
:1006700090912C010E948B04882399F080912D0188
:1006800090912E0190932901809328018091270158
:1006900090E0019664E670E00E94040680932701D2
:1006A0003FC080912B0190912C0190932901809360
:1006B000280182E090E090931F0180931E0120C0EA
:1006C00080911E0190911F01029761F58091270191
:1006D00090E0019664E670E00E9404068093270192
:1006E00080912D0190912E010E948B04882351F05E
:1006F00080912B0190912C019093290180932801E6
:100700000C94DE0280912D0190912E01909329018D
:100710008093280181E090E090931F0180931E0157
:100720000C94C80208951F920F920FB60F921124D5
:100730002F933F934F935F936F937F938F939F93E9
:10074000AF93BF93EF93FF9380912801811107C06E
:1007500080912901823018F40E94300310C08091EA
:100760002901811107C080912801815080932801BF
:100770008BE303C080912901815080932901FF916F
:10078000EF91BF91AF919F918F917F916F915F9109
:100790004F913F912F910F900FBE0F901F90189582
:1007A000E1EBF0E08081887F80832C9808951F9290
:1007B0000F920FB60F9211242F933F934F935F9395
:1007C0006F937F938F939F93AF93BF93EF93FF9319
:1007D00080912301909124010197909324018093AB
:1007E00023018091230190912401892B19F40E9407
:1007F000D0031DC0809120018823C9F08091210180
:100800009091220101979093220180932101809180
:10081000210190912201892B51F484E090E0909382
:1008200022018093210195B180E1892785B9FF914B
:10083000EF91BF91AF919F918F917F916F915F9158
:100840004F913F912F910F900FBE0F901F901895D1
:10085000E1E8F0E08081887F808380911E019091A3
:100860001F019093300180932F0183E090E09093DB
:100870001F0180931E010C94D0039C0120583E4F11
:10088000FC011192CF01E217F307D1F714B814B8A5
:1008900014B814B817B817B817B815B815B818B8E9
:1008A00018B818B8219A249A2A9A2B9A479A80E461
:1008B00080937C0087E880937A0084B5826084BD51
:1008C00080916E00826080936E0098EC97BD80915D
:1008D000810088608093810080916F0082608093A6
:1008E0006F002BE43CE430938900209388008091D2
:1008F000B00082608093B00080917000826080932D
:1009000070009093B30078940895861302C081E03C
:10091000971380E00895811102C081E0911180E079
:100920000895DC01CB014FB7F89455B15D7F65B1F7
:1009300062602D9138E065B9220FC8F00000000018
:1009400000000000000055B93A9531F000000000A9
:1009500000000000000004C0019701F12D9138E073
:10096000000000000000000000000000E4CF3A9505
:1009700021F000000000000003C001972D9138E035
:100980000000000000000000000055B939F0000030
:1009900000000000000000000000CDCF4FBF089510
:1009A000CF93DF93CDB7DEB7C058D1400FB6F894E0
:1009B000DEBF0FBECDBFCE0101960E943D0410E008
:1009C00084EFE82EFF24F39464E080912A010E94D2
:1009D000F50080932A01379917C066B170E00FEFD8
:1009E0002FEF4FEFCE0101960E940B0260E871E0FD
:1009F000CE0101960E9491042FE382E49FE02150F2
:100A000080409040E1F7D5C020911E0130911F0138
:100A10002130310509F474C048F02230310509F461
:100A2000CBC02330310509F486C0AFC040E062E09E
:100A300080912D0190912E010E94DD006C0160914A
:100A40002D0170912E010E94850481110BC0D0925E
:100A50002E01C0922D0185B5887F85BD109226019B
:100A60001092250141E063E080912B0190912C01CF
:100A70000E94DD006C0160912B0170912C010E949D
:100A80008504811110C0D0922C01C0922B0111114C
:100A900002C011E00AC0F0922601E092250185B55E
:100AA000856085BD02C01123A1F38091250190913D
:100AB0002601892B49F060912B0170912C0100E0F7
:100AC00020E040912A0108C060912D0170912E0113
:100AD00000E020912A0140E0CE0101960E94B90178
:100AE00080E090E00E942F01882319F00E94ED021F
:100AF0004CC082E090E00E942F018111F7CF45C0E9
:100B0000609128017091290100E0282F40E0CE017A
:100B100001960E94B90181E090E00E942F01882394
:100B200019F00E94280431C083E090E00E942F0158
:100B30008111F7CF2AC080E090E00E942F01882326
:100B400019F00E94AF0206C082E090E00E942F01DF
:100B50008111F7CF81E090E00E942F01882379F086
:100B60000E94BD0260912D0170912E0100E0209144
:100B70002A0140E0CE0101960E94B90106C083E03F
:100B800090E00E942F018111EBCF6091270100912D
:100B90002A0120E040E0CE0101960E946A0260E84E
:100BA00071E0CE0101960E94910487E893E10197DC
:100BB000F1F700C0000008CF609128017091290171
:100BC00000E020E0482FA3CF991B79E004C0991FD3
:100BD000961708F0961B881F7A95C9F78095089597
:100BE000AA1BBB1B51E107C0AA1FBB1FA617B70753
:100BF00010F0A61BB70B881F991F5A95A9F780956F
:100C00009095BC01CD01089597FB072E16F4009432
:100C100007D077FD09D00E94F00507FC05D03EF40F
:100C2000909581959F4F0895709561957F4F089598
:040C3000F894FFCF66
:100C3400CC00980164023003FC60DAF266B6BEE0D0
:020C4400FEF6BA
:04000003000005DA1A
:00000001FF
