:100000000C943E000C945B000C945B000C945B0021
:100010000C945B000C945B000C945B000C945B00F4
:100020000C945B000C945B000C945B000C945B00E4
:100030000C945B000C94CC020C945B000C945B0061
:100040000C9422020C945B000C945B000C945B00FB
:100050000C945B000C945B000C945B000C945B00B4
:100060000C945B000C945B000C945B000C945B00A4
:100070000C945B000C945B000C945B0011241FBE7D
:10008000CFEFD8E0DEBFCDBF11E0A0E0B1E0E4E209
:10009000F9E002C005900D92AA30B107D9F721E02E
:1000A000AAE0B1E001C01D92AB31B207E1F70E94B6
:1000B00088030C9490040C94000090917C00907E36
:1000C000892B80937C0080917A00806480937A00F1
:1000D00080917A0086FDFCCF809178009091790024
:1000E0000895CF93482FC92FFB018BE0869F900185
:1000F000879F300D1124232F332726952695842F93
:1001000090E08217930778F480E0922F990F990F6F
:100110006BE070E00E9468046C5E7F4FE617F707A3
:1001200010F4842F01C0822F9C2FCF910895CF937C
:10013000C82F492FFB012CE0269FC001279F900D5F
:100140001124892F99278695869555E0589F90010F
:10015000599F300D1124842F90E08217930778F473
:1001600080E0922F990F990F6CE370E00E94680471
:100170006C5E7F4FE617F70710F4942F01C0922FA3
:100180008C2FCF9108951F93CF93DF93EC01862F8F
:10019000142F0E945D00BC01CE010E947100EC0191
:1001A000812F0E945D00BC01CE010E949700DF916B
:1001B000CF911F910895009741F08130910559F436
:1001C00023B123FB332730F904C023B122FB3327AB
:1001D00030F921E02327DC01A45FBE4F3C91FC01F4
:1001E000E65FFE4F231304C080818F5F808302C0CF
:1001F00010822C9380818B3010F08C91089580E0D8
:100200000895AF92BF92DF92EF92FF920F931F93E8
:10021000CF93DF935C01E62FF0E0E050FF4F1081B9
:10022000E0E0F0E083E0D82E812F880F880BE82EE5
:10023000E022F82EF222382F3423DF0150E0852F00
:100240006D2D0E945C04692FC5018A0F9B1FEC0174
:10025000613021F0623021F0F88203C0388301C0A0
:10026000E8825F5F1196593051F7110F3996EF33DD
:10027000F105D1F6DF91CF911F910F91FF90EF9093
:10028000DF90BF90AF900895FC014083618322838B
:100290004383648325830895BF92CF92DF92EF92C8
:1002A000FF920F931F93CF93DF93EC01C62EB72ECF
:1002B000142FF22EE02E862F6AE00E945C04882321
:1002C00011F0682F04C000E020E040E060E0CE01C3
:1002D0000E9401018AE0D82E8C2D6D2D0E945C04B5
:1002E0000E2D2F2D412F692FCE01CF960E94010197
:1002F0008B2D6D2D0E945C04D92E2F2D412F682F40
:10030000CE018C579F4F0E9401012F2D412F6D2D43
:10031000CE018D539F4F0E9401012E2D4F2D612F35
:10032000CE0182589F4FDF91CF911F910F91FF9087
:10033000EF90DF90CF90BF900C9444018F929F92EA
:10034000AF92BF92CF92DF92EF92FF920F931F93E3
:10035000CF93DF93EC015B01142FF22E20E040E0FD
:1003600060E082589F4F0E9444018AE0C82ED12C41
:10037000C501B6010E9468044B012F2D412F682F43
:10038000CE018D539F4F0E940101C401B6010E940E
:1003900068042F2D412F682FCE018C579F4F0E944C
:1003A0000101C50164E670E00E946804CB01B6015A
:1003B0000E9468042F2D412F682FCE01CF960E94F6
:1003C0000101C50168EE73E00E946804CB01B6012B
:1003D0000E9468042F2D412F682FCE010E94010139
:1003E000DF91CF911F910F91FF90EF90DF90CF9011
:1003F000BF90AF909F908F900895DF92EF92FF9201
:100400000F931F93CF93DF93EC01862F142FF22EBF
:100410006AE00E945C04D92E682FCE018E5F9E4F49
:100420000E9401012F2D412F6D2DCE018F5B9E4F1C
:100430000E940101DF91CF911F910F91FF90EF90EA
:10044000DF9008951F920F920FB60F9211248F9391
:100450009F93809110019091110101979093110148
:10046000809310018091100190911101892B19F452
:1004700085B5887F85BD9F918F910F900FBE0F909E
:100480001F90189580911701909118010E944303C5
:10049000811117C080911701909118019093140158
:1004A0008093130181E08093120180918100856027
:1004B0008093810081E090E090930F0180930E0182
:1004C000089580911501909116010E94430388239D
:1004D00009F30895E1E8F0E08081887F80838091CE
:1004E0000E0190910F0190931A018093190183E0FE
:1004F00090E090930F0180930E010895809119016F
:1005000090911A0190930F0180930E01E1E8F0E0C1
:100510008081856080830895109285001092840008
:1005200010920F0110920E01109212010895809105
:100530000E0190910F01019779F48091150190912E
:100540001601909314018093130182E090E0909340
:100550000F0180930E011EC080910E0190910F013A
:100560000297C1F4809117019091180190931401A2
:100570008093130181E090E090930F0180930E012E
:100580008091120190E0019664E670E00E947C0484
:10059000809312012C9A08951F920F920FB60F921A
:1005A00011242F933F934F935F936F937F938F9378
:1005B0009F93AF93BF93EF93FF932C988091130178
:1005C000811107C080911401823018F40E949702B3
:1005D00010C080911401811107C0809113018150D6
:1005E000809313018BE303C08091140181508093A9
:1005F0001401FF91EF91BF91AF919F918F917F91E6
:100600006F915F914F913F912F910F900FBE0F907F
:100610001F9018959C0120583E4FFC011192CF016C
:10062000E217F307D1F714B814B815B815B8219A22
:10063000249A2A9A2B9A80E480937C0087E88093FE
:100640007A0084B5826084BD80916E008260809360
:100650006E0088EC87BD8091810088608093810066
:1006600080916F00826080936F008BE49CE4909394
:1006700089008093880078940895861302C081E0F1
:10068000971380E00895811102C081E0911180E00C
:100690000895DC01CB014FB7F89455B15D7F65B18A
:1006A00062602D9138E065B9220FC8F000000000AB
:1006B00000000000000055B93A9531F0000000003C
:1006C00000000000000004C0019701F12D9138E006
:1006D000000000000000000000000000E4CF3A9598
:1006E00021F000000000000003C001972D9138E0C8
:1006F0000000000000000000000055B939F00000C3
:1007000000000000000000000000CDCF4FBF0895A2
:10071000CF93DF93CDB7DEB7C058D1400FB6F89472
:10072000DEBF0FBECDBFCE0101960E940A0310E0CE
:1007300084EFE82EFF24F39480910E0190910F0135
:100740008130910509F46AC040F08230910509F4C6
:10075000ABC0039709F478C091C0809117019091C4
:10076000180140E062E00E94C3006C016091170133
:10077000709118010E943D0381110BC0D0921801A5
:10078000C092170185B5887F85BD10921101109226
:100790001001809115019091160141E063E00E94E3
:1007A000C3006C0160911501709116010E943D0318
:1007B000811110C0D0921601C0921501111102C012
:1007C00011E00AC0F0921101E092100185B5856038
:1007D00085BD02C01123A1F38091100190911101F8
:1007E000892B41F0609115017091160100E020E025
:1007F0004FEF07C0609117017091180100E02FEFD3
:1008000040E0CE0101960E944C0180E090E00E9401
:10081000DB00882399F10E94420230C060911301ED
:100820007091140100E02FEF40E0CE0101960E948C
:100830004C0181E090E00E94DB008823F9F00E94E7
:100840006A021B9BFECF1AC080E090E00E94DB0092
:1008500081110E947E0281E090E00E94DB008823EB
:1008600069F00E948C02609117017091180100E0FC
:100870002FEF40E0CE0101960E944C0160911201E1
:100880000FEF20E040E0CE0101960E94FD0160E8FC
:1008900071E0CE0101960E94490387E893E1019738
:1008A000F1F700C0000048CF60911301709114016E
:1008B00000E020E04FEFB9CF991B79E004C0991F09
:1008C000961708F0961B881F7A95C9F780950895AA
:1008D000AA1BBB1B51E107C0AA1FBB1FA617B70766
:1008E00010F0A61BB70B881F991F5A95A9F7809582
:1008F0009095BC01CD01089597FB072E16F4009446
:1009000007D077FD09D00E94680407FC05D03EF4AB
:10091000909581959F4F0895709561957F4F0895AB
:04092000F894FFCF79
:0A092400FC60DAF266B6BEE0FEF6F3
:040000030000048471
:00000001FF
