:100000000C943E000C945B000C945B000C945B0021
:100010000C945B000C945B000C945B000C945B00F4
:100020000C945B000C945B000C945B000C945B00E4
:100030000C945B000C9448020C945B000C945B00E5
:100040000C945B000C945B000C945B000C945B00C4
:100050000C945B000C945B000C945B000C945B00B4
:100060000C945B000C945B000C945B000C945B00A4
:100070000C945B000C945B000C945B0011241FBE7D
:10008000CFEFD8E0DEBFCDBF11E0A0E0B1E0E4ECFF
:10009000F7E002C005900D92AA30B107D9F721E030
:1000A000AAE0B1E001C01D92A931B207E1F70E94B8
:1000B000FA020C94E0030C94000090917C00907E76
:1000C000892B80937C0080917A00806480937A00F1
:1000D00080917A0086FDFCCF809178009091790024
:1000E0000895CF93482FC92FFB018BE0869F900185
:1000F000879F300D1124232F332726952695842F93
:1001000090E08217930778F480E0922F990F990F6F
:100110006BE070E00E94CC036C5E7F4FE617F70740
:1001200010F4842F01C0822F9C2FCF910895CF937C
:10013000C82F492FFB012CE0269FC001279F900D5F
:100140001124892F99278695869555E0589F90010F
:10015000599F300D1124842F90E08217930778F473
:1001600080E0922F990F990F6CE370E00E94CC030E
:100170006C5E7F4FE617F70710F4942F01C0922FA3
:100180008C2FCF9108951F93CF93DF93EC01862F8F
:10019000142F0E945D00BC01CE010E947100EC0191
:1001A000812F0E945D00BC01CE010E949700DF916B
:1001B000CF911F910895009741F08130910559F436
:1001C00023B123FB332730F904C023B122FB3327AB
:1001D00030F921E02327DC01A45FBE4F3C91FC01F4
:1001E000E65FFE4F231304C080818F5F808302C0CF
:1001F00010822C9380818B3010F08C91089580E0D8
:100200000895AF92BF92DF92EF92FF920F931F93E8
:10021000CF93DF935C01E62FF0E0E050FF4F1081B9
:10022000E0E0F0E083E0D82E812F880F880BE82EE5
:10023000E022F82EF222382F3423DF0150E0852F00
:100240006D2D0E94C003692FC5018A0F9B1FEC0111
:10025000613021F0623021F0F88203C0388301C0A0
:10026000E8825F5F1196593051F7110F3996EF33DD
:10027000F105D1F6DF91CF911F910F91FF90EF9093
:10028000DF90BF90AF900895FC014083618322838B
:100290004383648325830895BF92CF92DF92EF92C8
:1002A000FF920F931F93CF93DF93EC01C62EB72ECF
:1002B000142FF22EE02E862F6AE00E94C0038823BE
:1002C00011F0682F04C000E020E040E060E0CE01C3
:1002D0000E9401018AE0D82E8C2D6D2D0E94C00352
:1002E0000E2D2F2D412F692FCE01CF960E94010197
:1002F0008B2D6D2D0E94C003D92E2F2D412F682FDD
:10030000CE018C579F4F0E9401012F2D412F6D2D43
:10031000CE018D539F4F0E9401012E2D4F2D612F35
:10032000CE0182589F4FDF91CF911F910F91FF9087
:10033000EF90DF90CF90BF900C944401DF92EF924A
:10034000FF920F931F93CF93DF93EC01862F142F0F
:10035000F22E6AE00E94C003D92E682FCE018E5F74
:100360009E4F0E9401012F2D412F6D2DCE018F5BDD
:100370009E4F0E940101DF91CF911F910F91FF903D
:10038000EF90DF90089580911501909116010E94E1
:10039000B502811117C080911501909116019093BB
:1003A00012018093110181E08093100180918100FE
:1003B00085608093810081E090E090930F018093AD
:1003C0000E01089580911301909114010E94B502CD
:1003D000882309F30895E1E8F0E08081887F808335
:1003E00080910E0190910F01909318018093170155
:1003F00083E090E090930F0180930E010895809127
:1004000017019091180190930F0180930E01E1E87C
:10041000F0E08081856080830895109285001092BD
:10042000840010920F0110920E0110921001089595
:1004300080910E0190910F01019779F48091130141
:1004400090911401909312018093110182E090E049
:1004500090930F0180930E0119C080910E0190912D
:100460000F01029799F480911501909116019093D4
:1004700012018093110181E090E090930F0180932D
:100480000E01809110018F5F809310012C9A0895C6
:100490001F920F920FB60F9211242F933F934F93F9
:1004A0005F936F937F938F939F93AF93BF93EF93DC
:1004B000FF932C9880911101811107C08091120146
:1004C000823018F40E94180210C08091120181112C
:1004D00007C0809111018150809311018BE303C00B
:1004E00080911201815080931201FF91EF91BF9191
:1004F000AF919F918F917F916F915F914F913F91BC
:100500002F910F900FBE0F901F9018959C012058AF
:100510003E4FFC011192CF01E217F307D1F714B857
:1005200014B815B815B8219A249A2A9A2B9A80E4FF
:1005300080937C0087E880937A00809181008860B6
:100540008093810080916F00826080936F008BE4C4
:100550009CE4909389008093880078940895861392
:1005600002C081E0971380E00895811102C081E00C
:10057000911180E00895DC01CB014FB7F89455B19B
:100580005D7F65B162602D9138E065B9220FC8F0DA
:100590000000000000000000000055B93A9531F05D
:1005A0000000000000000000000004C0019701F1FD
:1005B0002D9138E000000000000000000000000065
:1005C000E4CF3A9521F000000000000003C001973D
:1005D0002D9138E00000000000000000000055B937
:1005E00039F0000000000000000000000000CDCF46
:1005F0004FBF0895CF93DF93CDB7DEB7C058D1403A
:100600000FB6F894DEBF0FBECDBFCE0101960E949B
:10061000860210E080910E0190910F0181309105CA
:1006200009F460C040F08230910509F4A1C003973D
:1006300009F46EC087C0809115019091160140E0C9
:1006400062E00E94C3007C01609115017091160167
:100650000E94AF0281110FC0F0921601E0921501C5
:10066000609115017091160100E02FEF40E0CE017E
:1006700001960E944C01809113019091140141E078
:1006800063E00E94C3007C0160911301709114012A
:100690000E94AF0281110FC0F0921401E092130189
:1006A000609113017091140100E020E04FEFCE0142
:1006B00001960E944C0111110CC0609115017091BE
:1006C000160100E02FEF40E0CE0101960E944C01A0
:1006D00011E080E090E00E94DB00882399F10E9405
:1006E000C30130C0609111017091120100E02FEF41
:1006F00040E0CE0101960E944C0181E090E00E9412
:10070000DB008823F9F00E94EB011B9BFECF1AC08F
:1007100080E090E00E94DB0081110E94FF0181E0F7
:1007200090E00E94DB00882369F00E940D02609136
:1007300015017091160100E02FEF40E0CE01019607
:100740000E944C01609110010FEF20E040E0CE01CB
:1007500001960E949E0160E871E0CE0101960E9420
:10076000BB0287E893E10197F1F700C0000052CF88
:10077000609111017091120100E020E04FEFB9CFBC
:10078000991B79E004C0991F961708F0961B881FE3
:100790007A95C9F780950895AA1BBB1B51E107C044
:1007A000AA1FBB1FA617B70710F0A61BB70B881F01
:1007B000991F5A95A9F780959095BC01CD01089590
:0407C000F894FFCFDB
:0A07C400FC60DAF266B6BEE0FEF655
:040000030000038670
:00000001FF
