:100000000C943E000C945B000C945B000C945B0021
:100010000C945B000C945B000C945B000C945B00F4
:100020000C945B000C946A030C945B000C945B00D2
:100030000C945B000C9426030C945B000C945B0006
:100040000C9422020C945B000C945B000C945B00FB
:100050000C945B000C945B000C945B000C945B00B4
:100060000C945B000C945B000C945B000C945B00A4
:100070000C945B000C945B000C945B0011241FBE7D
:10008000CFEFD8E0DEBFCDBF11E0A0E0B1E0E8ECFB
:10009000FAE002C005900D92AA30B107D9F721E02D
:1000A000AAE0B1E001C01D92A032B207E1F70E94C0
:1000B0005A040C9462050C94000090917C00907E90
:1000C000892B80937C0080917A00806480937A00F1
:1000D00080917A0086FDFCCF809178009091790024
:1000E0000895CF93482FC92FFB018BE0869F900185
:1000F000879F300D1124232F332726952695842F93
:1001000090E08217930778F480E0922F990F990F6F
:100110006BE070E00E943A056C5E7F4FE617F707D0
:1001200010F4842F01C0822F9C2FCF910895CF937C
:10013000C82F492FFB012CE0269FC001279F900D5F
:100140001124892F99278695869555E0589F90010F
:10015000599F300D1124842F90E08217930778F473
:1001600080E0922F990F990F6CE370E00E943A059E
:100170006C5E7F4FE617F70710F4942F01C0922FA3
:100180008C2FCF9108951F93CF93DF93EC01862F8F
:10019000142F0E945D00BC01CE010E947100EC0191
:1001A000812F0E945D00BC01CE010E949700DF916B
:1001B000CF911F910895009741F08130910559F436
:1001C00023B123FB332730F904C023B122FB3327AB
:1001D00030F921E02327DC01A45FBE4F3C91FC01F4
:1001E000E65FFE4F231304C080818F5F808302C0CF
:1001F00010822C938081873010F08C91089580E0DC
:100200000895AF92BF92DF92EF92FF920F931F93E8
:10021000CF93DF935C01E62FF0E0E050FF4F1081B9
:10022000E0E0F0E083E0D82E812F880F880BE82EE5
:10023000E022F82EF222382F3423DF0150E0852F00
:100240006D2D0E942E05692FC5018A0F9B1FEC01A1
:10025000613021F0623021F0F88203C0388301C0A0
:10026000E8825F5F1196593051F7110F3996EF33DD
:10027000F105D1F6DF91CF911F910F91FF90EF9093
:10028000DF90BF90AF900895FC014083618322838B
:100290004383648325830895BF92CF92DF92EF92C8
:1002A000FF920F931F93CF93DF93EC01C62EB72ECF
:1002B000142FF22EE02E862F6AE00E942E0588234E
:1002C00011F0682F04C000E020E040E060E0CE01C3
:1002D0000E9401018AE0D82E8C2D6D2D0E942E05E2
:1002E0000E2D2F2D412F692FCE01CF960E94010197
:1002F0008B2D6D2D0E942E05D92E2F2D412F682F6D
:10030000CE018C579F4F0E9401012F2D412F6D2D43
:10031000CE018D539F4F0E9401012E2D4F2D612F35
:10032000CE0182589F4FDF91CF911F910F91FF9087
:10033000EF90DF90CF90BF900C9444018F929F92EA
:10034000AF92BF92CF92DF92EF92FF920F931F93E3
:10035000CF93DF93EC015B01142FF22E20E040E0FD
:1003600060E082589F4F0E9444018AE0C82ED12C41
:10037000C501B6010E943A054B012F2D412F682F70
:10038000CE018D539F4F0E940101C401B6010E940E
:100390003A052F2D412F682FCE018C579F4F0E9479
:1003A0000101C50164E670E00E943A05CB01B60187
:1003B0000E943A052F2D412F682FCE01CF960E9423
:1003C0000101C50168EE73E00E943A05CB01B60158
:1003D0000E943A052F2D412F682FCE010E94010166
:1003E000DF91CF911F910F91FF90EF90DF90CF9011
:1003F000BF90AF909F908F900895DF92EF92FF9201
:100400000F931F93CF93DF93EC01862F142FF22EBF
:100410006AE00E942E05D92E682FCE018E5F9E4F76
:100420000E9401012F2D412F6D2DCE018F5B9E4F1C
:100430000E940101DF91CF911F910F91FF90EF90EA
:10044000DF9008951F920F920FB60F9211248F9391
:100450009F93809115019091160101979093160139
:10046000809315018091150190911601892B19F443
:1004700085B5887F85BD9F918F910F900FBE0F909E
:100480001F90189580911E0190911F0190930F016C
:1004900080930E01E1E8F0E080818560808308951B
:1004A000109285001092840010920F0110920E019C
:1004B00010921701089584E690E0909314018093C0
:1004C000130184E090E0909312018093110181E088
:1004D000809310012C9AE1EBF0E0808187608083AB
:1004E000089580E590E09093140180931301109299
:1004F00010012C9AE1EBF0E0808187608083089501
:1005000080911C0190911D010E941504811119C058
:1005100080911C0190911D010E9415048823D1F047
:1005200080911A0190911B019093190180931801F9
:1005300082E090E090930F0180930E010E9471027F
:1005400019C080911A0190911B010E941504882303
:10055000F9F2089580911C0190911D019093190169
:100560008093180181E090E090930F0180930E0139
:100570000E945B0281E08093170180918100856079
:1005800080938100089580910E0190910F01019751
:1005900051F580911A0190911B010E941504882346
:1005A00099F080911C0190911D0190931901809305
:1005B00018018091170190E0019664E670E00E94B6
:1005C0004E05809317013FC080911A0190911B0145
:1005D000909319018093180182E090E090930F01AD
:1005E00080930E0120C080910E0190910F0102971F
:1005F00061F58091170190E0019664E670E00E9439
:100600004E058093170180911C0190911D010E945D
:100610001504882351F080911A0190911B01909349
:100620001901809318010C94710280911C01909122
:100630001D01909319018093180181E090E090933F
:100640000F0180930E010C945B0208951F920F928C
:100650000FB60F9211242F933F934F935F936F9395
:100660007F938F939F93AF93BF93EF93FF9380916B
:100670001801811107C080911901823018F40E947D
:10068000C30210C080911901811107C08091180127
:100690008150809318018BE303C080911901815030
:1006A00080931901FF91EF91BF91AF919F918F912D
:1006B0007F916F915F914F913F912F910F900FBE5E
:1006C0000F901F901895E1EBF0E08081887F808388
:1006D0002C9808951F920F920FB60F9211242F930A
:1006E0003F934F935F936F937F938F939F93AF93BA
:1006F000BF93EF93FF9380911301909114010197A1
:10070000909314018093130180911301909114012F
:10071000892B19F40E9463031DC080911001882366
:10072000C9F08091110190911201019790931201EB
:10073000809311018091110190911201892B51F444
:1007400084E090E0909312018093110195B180E1D3
:10075000892785B9FF91EF91BF91AF919F918F91BB
:100760007F916F915F914F913F912F910F900FBEAD
:100770000F901F901895E1E8F0E08081887F8083DA
:1007800080910E0190910F0190931F0180931E01A3
:1007900083E090E090930F0180930E010C9463032B
:1007A0009C0120583E4FFC011192CF01E217F30744
:1007B000D1F714B814B815B815B8219A249A2A9A02
:1007C0002B9A80E480937C0087E880937A0084B53C
:1007D000826084BD80916E00826080936E0098EC90
:1007E00097BD8091810088608093810080916F0027
:1007F000826080936F002BE43CE430938900209367
:1008000088008091B00082608093B0008091700079
:100810008260809370009093B3007894089586135B
:1008200002C081E0971380E00895811102C081E049
:10083000911180E00895DC01CB014FB7F89455B1D8
:100840005D7F65B162602D9138E065B9220FC8F017
:100850000000000000000000000055B93A9531F09A
:100860000000000000000000000004C0019701F13A
:100870002D9138E0000000000000000000000000A2
:10088000E4CF3A9521F000000000000003C001977A
:100890002D9138E00000000000000000000055B974
:1008A00039F0000000000000000000000000CDCF83
:1008B0004FBF0895CF93DF93CDB7DEB7C058D14077
:1008C0000FB6F894DEBF0FBECDBFCE0101960E94D9
:1008D000D00310E084EFE82EFF24F39480910E0102
:1008E00090910F018130910509F46AC040F0823087
:1008F000910509F4ABC0039709F478C091C08091C9
:100900001C0190911D0140E062E00E94C3006C0157
:1009100060911C0170911D010E940F0481110BC098
:10092000D0921D01C0921C0185B5887F85BD1092B3
:1009300016011092150180911A0190911B0141E05E
:1009400063E00E94C3006C0160911A0170911B0169
:100950000E940F04811110C0D0921B01C0921A0195
:10096000111102C011E00AC0F0921601E0921501C7
:1009700085B5856085BD02C01123A1F38091150165
:1009800090911601892B41F060911A0170911B0121
:1009900000E020E04FEF07C060911C0170911D0145
:1009A00000E02FEF40E0CE0101960E944C0180E074
:1009B00090E00E94DB00882399F10E94800230C001
:1009C000609118017091190100E02FEF40E0CE0115
:1009D00001960E944C0181E090E00E94DB00882398
:1009E000F9F00E94BB031B9BFECF1AC080E090E091
:1009F0000E94DB0081110E94420281E090E00E948F
:100A0000DB00882369F00E94500260911C01709104
:100A10001D0100E02FEF40E0CE0101960E944C0145
:100A2000609117010FEF20E040E0CE0101960E9497
:100A3000FD0160E871E0CE0101960E941B0487E889
:100A400093E10197F1F700C0000048CF60911801D1
:100A50007091190100E020E04FEFB9CF991B79E0C8
:100A600004C0991F961708F0961B881F7A95C9F73E
:100A700080950895AA1BBB1B51E107C0AA1FBB1F8D
:100A8000A617B70710F0A61BB70B881F991F5A951A
:100A9000A9F780959095BC01CD01089597FB072E8D
:100AA00016F4009407D077FD09D00E943A0507FCA0
:100AB00005D03EF4909581959F4F0895709561956E
:080AC0007F4F0895F894FFCF69
:0A0AC800FC60DAF266B6BEE0FEF64E
:0400000300000500F4
:00000001FF
