:100000000C943E000C945B000C945B000C945B0021
:100010000C945B000C945B000C945B000C945B00F4
:100020000C945B000C945B000C945B000C945B00E4
:100030000C945B000C941C010C945B000C945B0012
:100040000C945B000C945B000C945B000C945B00C4
:100050000C945B000C945B000C945B000C945B00B4
:100060000C945B000C945B000C945B000C945B00A4
:100070000C945B000C945B000C945B0011241FBE7D
:10008000CFEFD8E0DEBFCDBF11E0A0E0B1E0E4E407
:10009000F6E002C005900D92AA30B107D9F721E031
:1000A000AAE0B1E001C01D92A831B207E1F70E94B9
:1000B000A9010C9420030C940000CF93C82F492F62
:1000C000FB012CE0269FC001279F900D1124892F52
:1000D00099278695869555E0589F9001599F300D38
:1000E0001124842F90E08217930778F480E0922FF8
:1000F000990F990F6CE370E00E940C03615F7F4FD2
:10010000E617F70710F4942F01C0922F8C2FCF9190
:10011000089590910D01981306C080910C018F5F96
:1001200080930C0104C010920C0180930D0180910A
:100130000C01853118F080910D01089580E008953B
:1001400090910B01981306C080910A018F5F8093F4
:100150000A0104C010920A0180930B0180910A01E8
:10016000853118F080910B01089580E00895AF92D9
:10017000BF92DF92EF92FF920F931F93CF93DF9383
:100180005C01E62FF0E0E050FF4F1081E0E0F0E08E
:1001900083E0D82E812F880F880BE82EE022F82EDE
:1001A000F222382F3423DF0150E0852F6D2D0E947D
:1001B0000003692FC5018A0F9B1FEC01613021F0FC
:1001C000623021F0F88203C0388301C0E8825F5FAB
:1001D0001196593051F7110F3996EF33F105D1F6D9
:1001E000DF91CF911F910F91FF90EF90DF90BF9023
:1001F000AF900895DF92EF92FF920F931F93CF93EA
:10020000DF93EC01872F142FF22E6AE00E94000387
:10021000D92E682FCE010E94B7002F2D412F6D2DB2
:10022000CE01CF960E94B700DF91CF911F910F9121
:10023000FF90EF90DF9008951F920F920FB60F92EC
:1002400011248F939F932C988091100181112BC0C2
:1002500080911101813039F580910E0190910F014B
:10026000019759F48091120190911301909311011B
:100270008093100182E090E010C080910E01909177
:100280000F01029771F480911401909115019093E0
:1002900011018093100181E090E090930F01809311
:1002A0000E012C9A10C080911101811107C080911C
:1002B00010018150809310018BE303C080911101E4
:1002C0008150809311019F918F910F900FBE0F90DD
:1002D0001F901895DC01CB014FB7F89455B15D7FA5
:1002E00065B162602D9138E065B9220FC8F0000059
:1002F000000000000000000055B93A9531F0000000
:10030000000000000000000004C0019701F12D91E1
:1003100038E0000000000000000000000000E4CF12
:100320003A9521F000000000000003C001972D91D4
:1003300038E00000000000000000000055B939F06E
:10034000000000000000000000000000CDCF4FBF03
:100350000895CF93DF93CDB7DEB7C058D1400FB625
:10036000F894DEBF0FBECDBF789483E184B98CE0F2
:1003700085B9FE013196CE018F579E4FFE2E1F2F5D
:10038000E817F90711F01192FBCF80E480937C000D
:1003900087E880937A008091810088608093810053
:1003A00080916F00826080936F008BE49CE4909357
:1003B000890080938800912CEE24E39483E0C82E7A
:1003C000D12CAA24A394B12C80910E0190910F01FD
:1003D0008130910509F489C040F08230910509F41B
:1003E000ADC0039709F4D3C004C180917C00807E26
:1003F00080937C0080917A00806480937A00809161
:100400007A0086FDFCCF6091780070917900809130
:100410001401909115010E945D00809115018917CA
:1004200069F090931501609114017091150100E03D
:100430002FEF40E08F2D912F0E94FA0080917C00D9
:10044000807E816080937C0080917A0080648093BC
:100450007A0080917A0086FDFCCF609178007091DF
:10046000790080911201909113010E945D0020910A
:100470001301291779F09093130180931201609171
:1004800012017091130100E020E04FEF8F2D912FAA
:100490000E94FA0091100DC0609114017091150135
:1004A00000E02FEF40E08F2D912F0E94FA00992459
:1004B000939483B182FB882780F98E250E9489005E
:1004C000882309F496C080911401909115019093AE
:1004D00011018093100180918100856080938100DB
:1004E000B0920F01A0920E0184C060911001709132
:1004F000110100E02FEF40E08F2D912F0E94FA00B4
:1005000083B183FB882780F98E250E94A000882371
:1005100009F46FC080918100887F80938100809171
:100520000E0190910F019093170180931601D092C4
:100530000F01C0920E011B9BFECF5BC060911001AA
:100540007091110100E020E04FEF8F2D912F0E945C
:10055000FA0083B183FB882780F98E250E94A000D2
:10056000882309F446C080918100887F80938100B0
:1005700080910E0190910F019093170180931601C5
:10058000D0920F01C0920E011B9BFECF32C083B1EF
:1005900082FB882780F98E250E948900882369F0D4
:1005A000809116019091170190930F0180930E0195
:1005B0008091810085608093810083B183FB8827CF
:1005C00080F98E250E94A000882399F06091140183
:1005D0007091150100E02FEF40E08F2D912F0E94C8
:1005E000FA00109285001092840010920F01109270
:1005F0000E0160E871E08F2D912F0E946A01E4CE18
:10060000991B79E004C0991F961708F0961B881F64
:100610007A95C9F780950895AA1BBB1B51E107C0C5
:10062000AA1FBB1FA617B70710F0A61BB70B881F82
:10063000991F5A95A9F780959095BC01CD01089511
:04064000F894FFCF5C
:0A064400FC60DAF266B6BEE0FEF6D6
:00000001FF
