:100000000C943E000C945B000C945B000C945B0021
:100010000C945B000C945B000C945B000C945B00F4
:100020000C945B000C94BE030C945B000C945B007E
:100030000C945B000C947A030C945B000C945B00B2
:100040000C9476020C945B000C945B000C945B00A7
:100050000C945B000C945B000C945B000C945B00B4
:100060000C945B000C945B000C945B000C945B00A4
:100070000C945B000C945B000C945B0011241FBE7D
:10008000CFEFD8E0DEBFCDBF11E0A0E0B1E0E8ECFB
:10009000FBE002C005900D92A231B107D9F721E033
:1000A000A2E1B1E001C01D92A932B207E1F70E94BE
:1000B000B3040C94E2050C94000090917C00907EB7
:1000C000892B80937C0080917A00806480937A00F1
:1000D00080917A0086FDFCCF809178009091790024
:1000E0000895CF93482FC92FFB018BE0869F900185
:1000F000879F300D1124232F332726952695842F93
:1001000090E08217930778F480E0922F990F990F6F
:100110006BE070E00E94BA056C5E7F4FE617F70750
:1001200078F4842F0EC0942F990F990F80E06BE024
:1001300070E00E94CE05645171096E177F0788F345
:10014000822F9C2FCF910895CF93C82F492FFB0169
:100150002CE0269FC001279F900D1124892F9927FD
:100160008695869555E0589F9001599F300D112432
:10017000842F90E08217930778F480E0922F990FF4
:10018000990F6CE370E00E94BA056C5E7F4FE61732
:10019000F70778F4942F0EC0942F990F990F80E0F1
:1001A0006CE370E00E94CE05645171096E177F0701
:1001B00088F3922F8C2FCF9108951F93CF93DF93C5
:1001C000EC01862F142F0E945D00BC01CE010E941D
:1001D0007100EC01812F0E945D00BC01CE010E94E4
:1001E000A400DF91CF911F910895CF93C82F862F40
:1001F0000E945D00AC018C2F63E30E94AE05E0E03D
:10020000F1E091E020E030E061E0E830F60771F0E5
:1002100061917191981710F42081318164177507ED
:1002200098F79F5F891780F79B01EECF9817A1F091
:10023000891730F42E5C3F4F4217530740F40CC02F
:10024000981728F4225331092417350728F083E33F
:10025000989F802D112401C08C2FCF910895009775
:1002600041F08130910559F423B123FB332730F954
:1002700004C023B122FB332730F921E02327DC011E
:10028000AC5EBE4F3C91FC01EE5EFE4F231304C0FA
:1002900080818F5F808302C010822C9380818730A1
:1002A00010F08C91089580E00895AF92BF92DF9294
:1002B000EF92FF920F931F93CF93DF935C01E62F92
:1002C000F0E0E85FFE4F1081E0E0F0E083E0D82E40
:1002D000812F880F880BE82EE022F82EF222382F8B
:1002E0003423DF0150E0852F6D2D0E94AE05692F6C
:1002F000C5018A0F9B1FEC01613021F0623021F0B3
:10030000F88203C0388301C0E8825F5F11965930DC
:1003100051F7110F3996EF33F105D1F6DF91CF91F7
:100320001F910F91FF90EF90DF90BF90AF900895D5
:10033000FC01408361832283438364832583089582
:10034000BF92CF92DF92EF92FF920F931F93CF93C2
:10035000DF93EC01C62EB72E142FF22EE02E862F3F
:100360006AE00E94AE05882311F0682F04C000E007
:1003700020E040E060E0CE010E9455018AE0D82EE6
:100380008C2D6D2D0E94AE050E2D2F2D412F692F26
:10039000CE01CF960E9455018B2D6D2D0E94AE058A
:1003A000D92E2F2D412F682FCE018C579F4F0E94A1
:1003B00055012F2D412F6D2DCE018D539F4F0E9442
:1003C00055012E2D4F2D612FCE0182589F4FDF9169
:1003D000CF911F910F91FF90EF90DF90CF90BF9042
:1003E0000C9498018F929F92AF92BF92CF92DF921E
:1003F000EF92FF920F931F93CF93DF93EC015B017A
:10040000142FF22E20E040E060E082589F4F0E94BF
:1004100098018AE0C82ED12CC501B6010E94BA0508
:100420004B012F2D412F682FCE018D539F4F0E94DE
:100430005501C401B6010E94BA052F2D412F682F26
:10044000CE018C579F4F0E945501C50164E670E0B4
:100450000E94BA05CB01B6010E94BA052F2D412F8B
:10046000682FCE01CF960E945501C50168EE73E05A
:100470000E94BA05CB01B6010E94BA052F2D412F6B
:10048000682FCE010E945501DF91CF911F910F91EE
:10049000FF90EF90DF90CF90BF90AF909F908F90A4
:1004A0000895DF92EF92FF920F931F93CF93DF9304
:1004B000EC01862F142FF22E6AE00E94AE05D92E91
:1004C000682FCE018E5F9E4F0E9455012F2D412F28
:1004D0006D2DCE018F5B9E4F0E945501DF91CF9114
:1004E0001F910F91FF90EF90DF9008951F920F9250
:1004F0000FB60F9211248F939F9380911D019091BD
:100500001E01019790931E0180931D0180911D0192
:1005100090911E01892B19F485B5887F85BD9F9127
:100520008F910F900FBE0F901F901895809127010B
:10053000909128019093170180931601E1E8F0E073
:1005400080818560808308951092850010928400D8
:10055000109217011092160110921F01089584E65F
:1005600090E090931C0180931B0184E090E09093B5
:100570001A018093190181E0809318012C9AE1EB14
:10058000F0E0808187608083089580E590E090931B
:100590001C0180931B01109218012C9AE1EBF0E0F2
:1005A0008081876080830895809125019091260144
:1005B0000E946E04811119C080912501909126013D
:1005C0000E946E048823D1F0809123019091240130
:1005D000909321018093200182E090E09093170195
:1005E000809316010E94C50219C080912301909149
:1005F00024010E946E048823F9F208958091250158
:1006000090912601909321018093200181E090E058
:1006100090931701809316010E94AF0281E08093AE
:100620001F018091810085608093810008958091F1
:10063000160190911701019751F580912301909136
:1006400024010E946E04882399F0809125019091E5
:100650002601909321018093200180911F0190E059
:10066000019664E670E00E94CE0580931F013FC0B2
:100670008091230190912401909321018093200186
:1006800082E090E0909317018093160120C0809142
:10069000160190911701029761F580911F0190E07A
:1006A000019664E670E00E94CE0580931F01809160
:1006B0002501909126010E946E04882351F08091BB
:1006C00023019091240190932101809320010C94A7
:1006D000C50280912501909126019093210180937C
:1006E000200181E090E090931701809316010C9413
:1006F000AF0208951F920F920FB60F9211242F93FD
:100700003F934F935F936F937F938F939F93AF9399
:10071000BF93EF93FF9380912001811107C08091D7
:100720002101823018F40E94170310C0809121012A
:10073000811107C0809120018150809320018BE3BB
:1007400003C080912101815080932101FF91EF919D
:10075000BF91AF919F918F917F916F915F914F91D9
:100760003F912F910F900FBE0F901F901895E1EBC6
:10077000F0E08081887F80832C9808951F920F92EB
:100780000FB60F9211242F933F934F935F936F9364
:100790007F938F939F93AF93BF93EF93FF9380913A
:1007A0001B0190911C01019790931C0180931B01E8
:1007B00080911B0190911C01892B19F40E94B703B1
:1007C0001DC0809118018823C9F080911901909172
:1007D0001A01019790931A018093190180911901D0
:1007E00090911A01892B51F484E090E090931A01C2
:1007F0008093190195B180E1892785B9FF91EF9127
:10080000BF91AF919F918F917F916F915F914F9128
:100810003F912F910F900FBE0F901F901895E1E818
:10082000F0E08081887F808380911601909117018C
:10083000909328018093270183E090E09093170123
:10084000809316010C94B7039C0120583E4FFC0185
:100850001192CF01E217F307D1F714B814B814B806
:1008600014B817B815B815B818B8219A249A2A9A46
:100870002B9A479A80E480937C0087E880937A00E3
:1008800084B5826084BD80916E00826080936E002A
:1008900098EC97BD80918100886080938100809161
:1008A0006F00826080936F002BE43CE430938900FA
:1008B000209388008091B00082608093B000809186
:1008C00070008260809370009093B30078940895D4
:1008D000861302C081E0971380E00895811102C061
:1008E00081E0911180E00895DC01CB014FB7F894CD
:1008F00055B15D7F65B162602D9138E065B9220F19
:10090000C8F00000000000000000000055B93A9552
:1009100031F00000000000000000000004C001975A
:1009200001F12D9138E000000000000000000000FF
:100930000000E4CF3A9521F000000000000003C061
:1009400001972D9138E00000000000000000000039
:1009500055B939F000000000000000000000000060
:10096000CDCF4FBF0895CF93DF93CDB7DEB7C0583B
:10097000D1400FB6F894DEBF0FBECDBFCE010196B9
:100980000E94240410E084EFE82EFF24F39464E036
:10099000809122010E94F50080932201379919C0AD
:1009A00082E00E945D000FEF2FEF4FEFBC01CE0100
:1009B00001960E94F20160E871E0CE0101960E946A
:1009C00074042FE382E49FE0215080409040E1F7DF
:1009D000BAC020911601309117012130310509F478
:1009E0006DC048F02230310509F4B0C02330310524
:1009F00009F47AC094C040E062E0809125019091B2
:100A000026010E94DD006C01609125017091260194
:100A10000E94680481110BC0D0922601C09225016A
:100A200085B5887F85BD10921E0110921D0141E0A1
:100A300063E080912301909124010E94DD006C010C
:100A400060912301709124010E946804811110C0FB
:100A5000D0922401C0922301111102C011E00AC0FA
:100A6000F0921E01E0921D0185B5856085BD02C032
:100A70001123A1F380911D0190911E01892B49F052
:100A8000609123017091240100E020E04091220157
:100A900008C0609125017091260100E0209122019B
:100AA00040E0CE0101960E94A00180E090E00E940B
:100AB0002F018823A1F10E94D40231C0609120014E
:100AC0007091210100E0282F40E0CE0101960E94A4
:100AD000A00181E090E00E942F01882301F10E9493
:100AE0000F041B9BFECF1BC080E090E00E942F01F3
:100AF00081110E94960281E090E00E942F018823DC
:100B000071F00E94A402609125017091260100E01D
:100B10002091220140E0CE0101960E94A001609147
:100B20001F010091220120E040E0CE0101960E94C9
:100B3000510260E871E0CE0101960E94740487E8DA
:100B400093E10197F1F700C0000021CF60912001EF
:100B50007091210100E020E0482FB7CF991B79E088
:100B600004C0991F961708F0961B881F7A95C9F73D
:100B700080950895AA1BBB1B51E107C0AA1FBB1F8C
:100B8000A617B70710F0A61BB70B881F991F5A9519
:100B9000A9F780959095BC01CD01089597FB072E8C
:100BA00016F4009407D077FD09D00E94BA0507FC1F
:100BB00005D03EF4909581959F4F0895709561956D
:080BC0007F4F0895F894FFCF68
:100BC800CC00980164023003FC60DAF266B6BEE03D
:020BD800FEF627
:04000003000005A84C
:00000001FF
