:1000000010C022C021C020C01FC01EC01DC01CC007
:100010001BC01AC019C018C017C016C015C014C024
:1000200013C011241FBECFE5D1E0DEBFCDBF10E06D
:10003000A0E6B0E0EAE4F2E002C005900D92AA3634
:10004000B107D9F783D0FFC0DBCFAF92BF92DF9269
:10005000EF92FF920F931F93CF93DF935C01E62FF4
:10006000F0E0E05AFF4F1081E0E0F0E083E0D82EAE
:10007000812F880F880BE82EE022F82EF222382FED
:100080003423DF0150E0852F6D2DAAD0692FC501E3
:100090008A0F9B1FEC01613021F0623021F0F88261
:1000A00003C0388301C0E8825F5F1196593059F769
:1000B000110F3996EF33F105D9F6DF91CF911F91EA
:1000C0000F91FF90EF90DF90BF90AF900895DC010B
:1000D000CB014FB7F8945BB35D7F6BB362602D913A
:1000E00038E06BBB220FC8F00000000000000000E9
:1000F00000005BBB3A9531F00000000000000000FA
:10010000000004C0019701F12D9138E000000000CB
:100110000000000000000000E4CF3A9521F000004C
:100120000000000003C001972D9138E0000000009E
:100130000000000000005BBB39F000000000000080
:10014000000000000000CDCF4FBF0895CF93DF9394
:10015000CDB7DEB7EF970FB6F894DEBF0FBECDBFB9
:1001600083E08ABBFE013196CE01805C9F4F5F0128
:100170008E179F0711F01192FBCFE12CF12C10E0AC
:10018000992493948AE0C82ED12C9BBA2FE382E461
:100190009FE0215080409040E1F700C000000F2D0B
:1001A000000F000F2E2D4F2D612FC5014EDF6FE385
:1001B00070E0C5018CDF1BBA2FE382E49FE0215081
:1001C00080409040E1F700C00000812F90E0019650
:1001D000B60112D0182F29E1F20E80E5E80ED5CF36
:1001E000991B79E004C0991F961708F0961B881F89
:1001F0007A95C9F78095089597FB072E16F4009419
:1002000006D077FD08D00BD007FC05D03EF49095C2
:1002100081959F4F0895709561957F4F0895AA1B12
:10022000BB1B51E107C0AA1FBB1FA617B70710F0E1
:10023000A61BB70B881F991F5A95A9F78095909513
:0A024000BC01CD010895F894FFCF32
:0A024A00FC60DAF266B6BEE0FEF6D4
:00000001FF
