:100000000C943E000C945B000C945B000C945B0021
:100010000C945B000C945B000C945B000C945B00F4
:100020000C945B000C945B000C945B000C945B00E4
:100030000C945B000C9428010C945B000C945B0006
:100040000C945B000C945B000C945B000C945B00C4
:100050000C945B000C945B000C945B000C945B00B4
:100060000C945B000C945B000C945B000C945B00A4
:100070000C945B000C945B000C945B0011241FBE7D
:10008000CFEFD8E0DEBFCDBF11E0A0E0B1E0E8EDFA
:10009000F5E002C005900D92AA30B107D9F721E032
:1000A000AAE0B1E001C01D92A831B207E1F70E94B9
:1000B000DE010C94EA020C94000090917C00907E8A
:1000C000892B80937C0080917A00806480937A00F1
:1000D00080917A0086FDFCCF809178009091790024
:1000E0000895CF93C82F492FFB012CE0269FC00114
:1000F000279F900D1124892F99278695869555E085
:10010000589F9001599F300D1124842F90E0821741
:10011000930778F480E0922F990F990F6CE370E0C9
:100120000E94D602615F7F4FE617F70710F4942F05
:1001300001C0922F8C2FCF910895009741F081300C
:10014000910559F423B123FB332730F904C023B1BF
:1001500022FB332730F921E02327DC01A45FBE4FC7
:100160003C91FC01E65FFE4F231304C080818F5F4A
:10017000808302C010822C938081853110F08C9195
:10018000089580E00895AF92BF92DF92EF92FF92C0
:100190000F931F93CF93DF935C01E62FF0E0E050C5
:1001A000FF4F1081E0E0F0E083E0D82E812F880F30
:1001B000880BE82EE022F82EF222382F3423DF01BC
:1001C00050E0852F6D2D0E94CA02692FC5018A0F4C
:1001D0009B1FEC01613021F0623021F0F88203C0F6
:1001E000388301C0E8825F5F1196593051F7110FD3
:1001F0003996EF33F105D1F6DF91CF911F910F9131
:10020000FF90EF90DF90BF90AF900895DF92EF9254
:10021000FF920F931F93CF93DF93EC01872F142F3F
:10022000F22E6AE00E94CA02D92E682FCE010E94E7
:10023000C3002F2D412F6D2DCE01CF960E94C300FC
:10024000DF91CF911F910F91FF90EF90DF90089574
:100250001F920F920FB60F9211248F939F932C9899
:100260008091100181112BC080911101813039F5ED
:1002700080910E0190910F01019759F48091120124
:1002800090911301909311018093100182E090E00E
:1002900010C080910E0190910F01029771F480912E
:1002A000140190911501909311018093100181E048
:1002B00090E090930F0180930E012C9A10C08091D2
:1002C0001101811107C080911001815080931001AC
:1002D0008BE303C0809111018150809311019F91A4
:1002E0008F910F900FBE0F901F9018959C01205872
:1002F0003E4FFC011192CF01E217F307D1F714B87A
:1003000014B815B815B8219A249A2A9A2B9A80E421
:1003100080937C0087E880937A00809181008860D8
:100320008093810080916F00826080936F008BE4E6
:100330009CE4909389008093880078940895DC0170
:10034000CB014FB7F89455B15D7F65B162602D91D7
:1003500038E065B9220FC8F000000000000000007E
:10036000000055B93A9531F000000000000000008F
:10037000000004C0019701F12D9138E00000000059
:100380000000000000000000E4CF3A9521F00000DA
:100390000000000003C001972D9138E0000000002C
:1003A00000000000000055B939F000000000000016
:1003B000000000000000CDCF4FBF0895CF93DF9322
:1003C000CDB7DEB7C058D1400FB6F894DEBF0FBE30
:1003D000CDBFCE0101960E94760110E083E0E82EA9
:1003E000F12C80910E0190910F018130910509F45B
:1003F0006AC040F08230910509F4C4C0039709F443
:1004000088C0B3C080E00E945D00BC0180911401EF
:10041000909115010E94710080911501891769F072
:1004200090931501609114017091150100E02FEF78
:1004300040E0CE0101960E94060181E00E945D002D
:10044000BC0180911201909113010E9471002091D2
:100450001301291779F09093130180931201609191
:1004600012017091130100E020E04FEFCE010196E0
:100470000E94060111110CC06091140170911501C8
:1004800000E02FEF40E0CE0101960E94060111E04E
:1004900080E090E00E949D00882309F466C080916E
:1004A0001401909115019093110180931001809196
:1004B000810085608093810081E090E090930F013E
:1004C00080930E0152C0609110017091110100E003
:1004D0002FEF40E0CE0101960E94060181E090E0FE
:1004E0000E949D00882309F440C080918100887F8C
:1004F0008093810080910E0190910F0190931701DC
:1005000080931601F0920F01E0920E011B9BFECF2B
:100510002CC080E090E00E949D00882369F08091CB
:1005200016019091170190930F0180930E01809115
:10053000810085608093810081E090E00E949D00B1
:10054000882399F0609114017091150100E02FEF5C
:1005500040E0CE0101960E940601109285001092A3
:10056000840010920F0110920E0160E871E0CE013C
:1005700001960E949F0187E893E10197F1F700C07F
:1005800000002FCF609110017091110100E020E078
:100590004FEFA0CF991B79E004C0991F961708F080
:1005A000961B881F7A95C9F780950895AA1BBB1BD7
:1005B00051E107C0AA1FBB1FA617B70710F0A61B63
:1005C000B70B881F991F5A95A9F780959095BC0184
:0805D000CD010895F894FFCF5E
:0A05D800FC60DAF266B6BEE0FEF643
:00000001FF
