:100000000C943E000C9453000C9453000C94530039
:100010000C9453000C9453000C9453000C94530014
:100020000C9453000C9453000C9453000C94530004
:100030000C9453000C9453000C9453000C945300F4
:100040000C9453000C9453000C9453000C945300E4
:100050000C9453000C9453000C9453000C945300D4
:100060000C9453000C9453000C9453000C945300C4
:100070000C9453000C9453000C94530011241FBE95
:10008000CFEFD8E0DEBFCDBF11E0A0E0B1E0E8E8FF
:10009000F3E002C005900D92AA30B107D9F70E9493
:1000A00001010C94C2010C940000AF92BF92DF9248
:1000B000EF92FF920F931F93CF93DF935C01E62F94
:1000C000F0E0E050FF4F1081E0E0F0E083E0D82E58
:1000D000812F880F880BE82EE022F82EF222382F8D
:1000E0003423DF0150E0852F6D2D0E94A201692F7E
:1000F000C5018A0F9B1FEC01613021F0623021F0B5
:10010000F88203C0388301C0E8825F5F11965930DE
:1001100051F7110F3996EF33F105D1F6DF91CF91F9
:100120001F910F91FF90EF90DF90BF90AF900895D7
:10013000CF93DF93FC01EB012CE0269FC001279FAA
:10014000900D1124892F99278695869545E0489F23
:100150009001499F300D1124E217F30778F480E0F5
:10016000922F990F990F6CE370E00E94AE01665FC9
:100170007F4FC617D70710F4CF0101C0C901DF9127
:10018000CF910895DC01CB014FB7F89455B15D7F55
:1001900065B162602D9138E065B9220FC8F00000AA
:1001A000000000000000000055B93A9531F0000051
:1001B000000000000000000004C0019701F12D9133
:1001C00038E0000000000000000000000000E4CF64
:1001D0003A9521F000000000000003C001972D9126
:1001E00038E00000000000000000000055B939F0C0
:1001F000000000000000000000000000CDCF4FBF55
:100200000895CF93DF93CDB7DEB7C058D1400FB676
:10021000F894DEBF0FBECDBF83E084B9FE013196F6
:10022000CE018F579E4F9E2E1F2FE817F90711F012
:100230001192FBCF80E480937C0087E880937A0062
:10024000C12CD12C612C712C8AE0A82EB12C80916C
:100250007C00807E80937C0080917A008064809313
:100260007A0080917A0086FDFCCF80917A008064CC
:1002700080937A0080917A0086FDFCCF60917800AF
:1002800070917900C3010E9498007C01681679067C
:10029000C9F0B5010E94AE01782E00E02FEF40E0DA
:1002A000892D912F0E9455002FEF40E0672DCE0140
:1002B000805C9F4F0E94550060E871E0892D912F6E
:1002C0000E94C20080917C00807E816080937C00CF
:1002D00080917A00806480937A0080917A0086FD14
:1002E000FCCF80917A00806480937A0080917A00BC
:1002F00086FDFCCF6091780070917900C6010E9464
:1003000098003C01C816D90619F4630137019FCF44
:10031000B5010E94AE01D82E00E020E04FEF892DFC
:10032000912F0E94550020E04FEF6D2DCE01805C93
:100330009F4F0E94550060E871E0892D912F0E9427
:10034000C200E3CF991B79E004C0991F961708F00B
:10035000961B881F7A95C9F780950895AA1BBB1B29
:1003600051E107C0AA1FBB1FA617B70710F0A61BB5
:10037000B70B881F991F5A95A9F780959095BC01D6
:08038000CD010895F894FFCFB0
:0A038800FC60DAF266B6BEE0FEF695
:00000001FF
