:1000000010C017C016C015C014C013C012C011C054
:1000100010C00FC00EC00DC00CC00BC00AC009C07C
:1000200008C011241FBECFE5D1E0DEBFCDBF41D057
:100030007FC0E6CFDC01CB014FB7F8945BB35D7FA7
:100040006BB362602D9138E06BBB220FC8F00000EB
:1000500000000000000000005BBB3A9531F000009A
:10006000000000000000000004C0019701F12D9184
:1000700038E0000000000000000000000000E4CFB5
:100080003A9521F000000000000003C001972D9177
:1000900038E0000000000000000000005BBB39F009
:1000A000000000000000000000000000CDCF4FBFA6
:1000B0000895CF93DF93CDB7DEB7EF970FB6F894DF
:1000C000DEBF0FBECDBF83E08ABBCE01805C9F4FF9
:1000D000FE013196E817F90711F01192FBCF11E0FC
:1000E0001BBB2FE78AE196E0215080409040E1F76A
:1000F00000C00000FE01319680E09081980F9F3F84
:1001000011F0908301C0108231968B5F8B33A9F779
:100110006FE370E0CE0101968DDF1BBA2FE78AE115
:1001200096E0215080409040E1F700C00000D8CF19
:04013000F894FFCF71
:00000001FF
